:100000000C942A000C9447000C9447000C94470071
:100010000C9447000C9447000C9447000C94470044
:100020000C9447000C9447000C9447000C94F90181
:100030000C9447000C9447000C94A5010C944700C5
:100040000C9447000C9447000C9447000C949B01BF
:100050000C94470011241FBECFE5D4E0DEBFCDBF16
:1000600010E0A0E6B0E0E4E7F5E002C005900D92F4
:10007000AE36B107D9F720E0AEE6B0E001C01D9280
:10008000AB37B207E1F70E9481020C94B8020C94DE
:100090000000FC01208181E090E002C0880F991FE0
:1000A0006A95E2F782230895FC01408121E030E067
:1000B00002C0220F331F6A95E2F7242B2083089594
:1000C000FC01908121E030E002C0220F331F6A95CD
:1000D000E2F7209529232083089584B3807F84BB91
:1000E00064E085E390E00E94600065E085E390E0D5
:1000F0000E94540066E085E390E00E9454008FE186
:100100009EE40197F1F700C0000066E085E390E00F
:100110000E94600063E083E390E00E944900811147
:1001200019C09AE19A95F1F700C066E085E390E086
:100130000E9454008FE19EE40197F1F700C0000097
:1001400066E085E390E00E9460009AE19A95F1F7FD
:1001500000C0D0CF8AE18A95F1F700C066E085E360
:1001600090E00E9454008FE19EE40197F1F700C0F7
:10017000000066E085E390E00E9460009AE19A95B5
:10018000F1F700C064E085E390E00E94600065E064
:1001900085E390E00E94600084B38F6084BB089583
:1001A000CF93C82F82958F7085BB64E085E390E084
:1001B0000E94600065E085E390E00E94600066E0D8
:1001C00085E390E00E9454008FE19EE40197F1F7EF
:1001D00000C0000066E085E390E00E946000CF7000
:1001E000C5BB64E085E390E00E94600065E085E3C4
:1001F00090E00E94600066E085E390E00E94540079
:100200008FE19EE40197F1F700C0000066E085E30E
:1002100090E00E9460000E946D00CF910895CF93FE
:10022000C82F80916E008F5F80936E008C2F829517
:100230008F7085BB64E085E390E00E94540065E028
:1002400085E390E00E94600066E085E390E00E9414
:1002500054008FE19EE40197F1F700C0000066E0D2
:1002600085E390E00E946000CF70C5BB64E085E349
:1002700090E00E94540065E085E390E00E946000F9
:1002800066E085E390E00E9454008FE19EE40197D0
:10029000F1F700C0000066E085E390E00E94600096
:1002A0000E946D00CF9108950F931F93CF93FC018F
:1002B00016C080916E008432C1F0CA3039F480ECEF
:1002C0000E94D00080E180936E0008C0803119F454
:1002D00080EC0E94D0008C2F0E940F01F8018F014A
:1002E0000F5F1F4FC081C111E4CFCF911F910F91BC
:1002F000089581E00E94D00080E80E94D000109212
:100300006E0008950F931F93CF938C01C62F61E069
:100310008CE390E00E9449008111F9CF1FBB0EBB16
:10032000CDBB8CB384608CBB8CB382608CBBCF9113
:100330001F910F9108951F920F920FB60F921124E3
:100340000F900FBE0F901F9018951F920F920FB62F
:100350000F9211242F933F934F935F936F937F934B
:100360008F939F93AF93BF93EF93FF938091700010
:1003700090917100892B81F465B180917800909102
:1003800079000E9482018091780090917900019615
:100390009093790080937800809178009091790013
:1003A0008115924039F413BE0E94790180E690E0F5
:1003B0000E945401FF91EF91BF91AF919F918F9156
:1003C0007F916F915F914F913F912F910F900FBE51
:1003D0000F901F90189591B3926091BB10BC89B992
:1003E00088E98AB986E880BD08955D9BFECF8CB907
:1003F00008951F920F920FB60F9211248F938CB114
:1004000080937A0081E080936F008F910F900FBEF0
:100410000F901F9018951DB880EB87BB83E58DB9B1
:100420001ABA8FEF8BBB88B3806188BB08958F7732
:1004300098B39F7E98BB8FB9779BFECF6FB9779BA0
:10044000FECF88B3806188BB8FB1089598B39F7E3B
:1004500098BB80688FB9779BFECF8FB11FB8779B11
:10046000FECF8FB198B3906198BB0895CF93DF937F
:10047000EC0180E30E94260288838AE10E94260222
:10048000898389E10E9426028A8387E30E942602EB
:100490008B8388E30E9426028C8389E30E942602D4
:1004A0008D83DF91CF91089561E181E00E94170271
:1004B00063E08AE00E94170263E08CE00E9417026A
:1004C00069E083E10E94170264E082E10E94170262
:1004D00066E384E10E94170268E081E20E9417024D
:1004E00060E882E20E94170268E087E20E94170239
:1004F00060E18FE20E94170261E080E00E94170233
:1005000008958FEF84BB85BB2FEF39E698E121502A
:1005100030409040E1F700C0000015BA1ABA8BBB1A
:10052000789483E30E94EB010E940B020E94540224
:10053000E2E7F0E01282118210828FE19EE40197DF
:10054000F1F700C00000C999FECF82E790E00E9459
:100550003602C2E7D0E08B810E94F5018C810E94B7
:10056000F5018D810E94F5018AE00E94F501E5CF39
:04057000F894FFCF2D
:0E057400454550524F4D204C4C454E4F000017
:00000001FF
